:10000000002500208143000081A400006D43000012
:100010006D4300006D4300006D43000000000000D0
:10002000000000000000000000000000B9410000D6
:100030006D43000000000000614100006D430000BE
:100040001941000019410000194100001941000048
:100050001941000019410000194100001941000038
:100060001941000019410000194100001941000028
:100070001941000019410000194100001941000018
:100080001941000019410000194100001941000008
:1000900019410000194100001941000019410000F8
:1000A00019410000194100001941000019410000E8
:1000B00019410000194100001941000019410000D8
:1000C00019410000194100001941000019410000C8
:1000D00019410000194100001941000019410000B8
:1000E00019410000194100001941000019410000A8
:1000F0001941000019410000194100001941000098
:1001000081F0004102E000BF83F0004330B54FEAC8
:1001100041044FEA430594EA050F08BF90EA020F35
:100120001FBF54EA000C55EA020C7FEA645C7FEAC8
:10013000655C00F0E2804FEA5454D4EB5555B8BFEB
:100140006D420CDD2C4480EA020281EA030382EA5C
:10015000000083EA010180EA020281EA0303362DEE
:1001600088BF30BD11F0004F4FEA01314FF4801CC1
:100170004CEA113102D0404261EB410113F0004FD3
:100180004FEA03334CEA133302D0524263EB43038A
:1001900094EA050F00F0A780A4F10104D5F1200E28
:1001A0000DDB02FA0EFC22FA05F2801841F1000183
:1001B00003FA0EF2801843FA05F359410EE0A5F157
:1001C00020050EF1200E012A03FA0EFC28BF4CF088
:1001D000020C43FA05F3C01851EBE37101F000453E
:1001E00007D54FF0000EDCF1000C7EEB00006EEB4B
:1001F0000101B1F5801F1BD3B1F5001F0CD34908D5
:100200005FEA30004FEA3C0C04F101044FEA44522B
:1002100012F5800F80F09A80BCF1004F08BF5FEAB2
:10022000500C50F1000041EB045141EA050130BD92
:100230005FEA4C0C404141EB0101013C28BFB1F5A4
:10024000801FE9D291F0000F04BF01460020B1FAEF
:1002500081F308BF2033A3F10B03B3F120020CDAC2
:100260000C3208DD02F1140CC2F10C0201FA0CF0A0
:1002700021FA02F10CE002F11402D8BFC2F1200C05
:1002800001FA02F120FA0CFCDCBF41EA0C019040BB
:10029000E41AA2BF01EB0451294330BD6FEA040404
:1002A0001F3C1CDA0C340EDC04F11404C4F12002EF
:1002B00020FA04F001FA02F340EA030021FA04F301
:1002C00045EA030130BDC4F10C04C4F1200220FA58
:1002D00002F001FA04F340EA0300294630BD21FA96
:1002E00004F0294630BD94F0000F83F4801306BF5C
:1002F00081F480110134013D4EE77FEA645C18BF50
:100300007FEA655C29D094EA050F08BF90EA020FE6
:1003100005D054EA000C04BF1946104630BD91EADE
:10032000030F1EBF0021002030BD5FEA545C05D1E1
:100330004000494128BF41F0004130BD14F5800420
:100340003CBF01F5801130BD01F0004545F0FE4194
:1003500041F470014FF0000030BD7FEA645C1ABFC9
:10036000194610467FEA655C1CBF0B46024650EA00
:10037000013406BF52EA033591EA030F41F400212C
:1003800030BD00BF90F0000F04BF0021704730B5B2
:100390004FF4806404F132044FF000054FF0000187
:1003A00050E700BF90F0000F04BF0021704730B548
:1003B0004FF4806404F1320410F0004548BF40421D
:1003C0004FF000013EE700BF42004FEAE2014FEA72
:1003D00031014FEA02701FBF12F07F4393F07F4F4D
:1003E00081F06051704732F07F4208BF704793F050
:1003F0007F4F04BF41F40021704730B54FF4607463
:1004000001F0004521F000411CE700BF50EA010265
:1004100008BF704730B54FF000050AE050EA01020E
:1004200008BF704730B511F0004502D5404261EB7E
:1004300041014FF4806404F132045FEA915C3FF4BF
:10044000D8AE4FF003025FEADC0C18BF03325FEA5C
:10045000DC0C18BF033202EBDC02C2F1200300FA0D
:1004600003FC20FA02F001FA03FE40EA0E0021FA32
:1004700002F11444BDE600BF70B54FF0FF0C4CF420
:10048000E06C1CEA11541DBF1CEA135594EA0C0FD2
:1004900095EA0C0F00F0DEF82C4481EA030621EA0D
:1004A0004C5123EA4C5350EA013518BF52EA033548
:1004B00041F4801143F4801338D0A0FB02CE4FF0FA
:1004C0000005E1FB02E506F00042E0FB03E54FF02A
:1004D0000006E1FB03569CF0000F18BF4EF0010E22
:1004E000A4F1FF04B6F5007F64F5407404D25FEA1E
:1004F0004E0E6D4146EB060642EAC62141EA5551D1
:100500004FEAC52040EA5E504FEACE2EB4F1FD0C12
:1005100088BFBCF5E06F1ED8BEF1004F08BF5FEA90
:10052000500E50F1000041EB045170BD06F0004642
:1005300046EA010140EA020081EA0301B4EB5C04EF
:10054000C2BFD4EB0C0541EA045170BD41F48011E7
:100550004FF0000E013C00F3AB8014F1360FDEBF0C
:10056000002001F0004170BDC4F10004203C35DAE8
:100570000C341BDC04F11404C4F1200500FA05F36B
:1005800020FA04F001FA05F240EA020001F000420C
:1005900021F0004110EBD37021FA04F642EB060182
:1005A0005EEA430E08BF20EAD37070BDC4F10C04AC
:1005B000C4F1200500FA04F320FA05F001FA04F270
:1005C00040EA020001F0004110EBD37041F100015C
:1005D0005EEA430E08BF20EAD37070BDC4F1200567
:1005E00000FA05F24EEA020E20FA04F301FA05F2CF
:1005F00043EA020321FA04F001F0004121FA04F277
:1006000020EA020000EBD3705EEA430E08BF20EA46
:10061000D37070BD94F0000F0FD101F00046400080
:1006200041EB010111F4801F08BF013CF7D041EA02
:10063000060195F0000F18BF704703F00046520006
:1006400043EB030313F4801F08BF013DF7D043EAD7
:100650000603704794EA0C0F0CEA135518BF95EA8D
:100660000C0F0CD050EA410618BF52EA4306D1D114
:1006700081EA030101F000414FF0000070BD50EA33
:10068000410606BF1046194652EA430619D094EABD
:100690000C0F02D150EA013613D195EA0C0F05D1A7
:1006A00052EA03361CBF104619460AD181EA0301FB
:1006B00001F0004141F0FE4141F470014FF00000B3
:1006C00070BD41F0FE4141F4780170BD70B54FF04E
:1006D000FF0C4CF4E06C1CEA11541DBF1CEA1355CE
:1006E00094EA0C0F95EA0C0F00F0A7F8A4EB0504B0
:1006F00081EA030E52EA03354FEA013100F08880A7
:100700004FEA03334FF0805545EA131343EA12636F
:100710004FEA022245EA111545EA10654FEA002624
:100720000EF000419D4208BF964244F1FD0404F5DD
:10073000407402D25B084FEA3202B61A65EB030539
:100740005B084FEA32024FF480104FF4002CB6EBF6
:10075000020E75EB030E22BFB61A754640EA0C0076
:100760005B084FEA3202B6EB020E75EB030E22BFB6
:10077000B61A754640EA5C005B084FEA3202B6EBF7
:10078000020E75EB030E22BFB61A754640EA9C00B6
:100790005B084FEA3202B6EB020E75EB030E22BF86
:1007A000B61A754640EADC0055EA060E18D04FEA44
:1007B000051545EA16754FEA06164FEAC30343EAE4
:1007C00052734FEAC2025FEA1C1CC0D111F4801FB1
:1007D0000BD141EA00014FF000004FF0004CB6E7AA
:1007E00011F4801F04BF01430020B4F1FD0C88BF49
:1007F000BCF5E06F3FF6AFAEB5EB030C04BFB6EB54
:10080000020C5FEA500C50F1000041EB045170BD46
:100810000EF0004E4EEA113114EB5C04C2BFD4EB73
:100820000C0541EA045170BD41F480114FF0000EF7
:10083000013C90E645EA060E8DE60CEA135594EA73
:100840000C0F08BF95EA0C0F3FF43BAF94EA0C0F76
:100850000AD150EA01347FF434AF95EA0C0F7FF4EB
:1008600025AF104619462CE795EA0C0F06D152EA3F
:1008700003353FF4FDAE1046194622E750EA410623
:1008800018BF52EA43067FF4C5AE50EA41047FF434
:100890000DAF52EA43057FF4EBAE12E77BB972B9B4
:1008A0000029BEBF00204FF0004106E008BF00282D
:1008B0001CBF6FF000414FF0FF3000F0B7B9ADF151
:1008C000080C6DE904CE002909DB002B1ADB00F0CF
:1008D0004DF8DDF804E0DDE9022304B07047404242
:1008E00061EB4101002B1BDB00F040F8DDF804E078
:1008F000DDE9022304B0404261EB4101524263EB67
:1009000043037047524263EB430300F02FF8DDF8D6
:1009100004E0DDE9022304B0404261EB410170478D
:10092000524263EB430300F021F8DDF804E0DDE917
:10093000022304B0524263EB4303704753B94AB9F0
:10094000002908BF00281CBF4FF0FF314FF0FF30D7
:1009500000F06CB9ADF1080C6DE904CE00F006F8BA
:10096000DDF804E0DDE9022304B070472DE9F0472B
:10097000089E0D4604468E46002B40F082808A4237
:10098000174646D9B2FA82F24AB1C2F1200105FAFD
:1009900002F320FA01F1974041EA030E94404FEA36
:1009A0001748230CBEFBF8FCB9B208FB1CEE43EA67
:1009B0000E430CFB01F098420AD9FB180CF1FF35ED
:1009C00080F01681984240F21381ACF1020C3B4456
:1009D0001B1AA4B2B3FBF8F008FB103344EA03443B
:1009E00000FB01F1A14209D93C1900F1FF3380F06D
:1009F0000181A14240F2FE8002383C44641A40EA80
:100A00000C4000211EB1D4400023C6E90043BDE8DC
:100A1000F08702B9FFDEB2FA82F2002A4FD1CB1B77
:100A20004FEA174E1FFA87F80121B3FBFEFC250C95
:100A30000EFB1C3345EA034508FB0CF3AB4207D918
:100A40007D190CF1FF3002D2AB4200F2E780844600
:100A5000ED1AA3B2B5FBFEF00EFB105543EA0544B8
:100A600008FB00F8A04507D93C1900F1FF3302D27A
:100A7000A04500F2D7801846A4EB080440EA0C40D9
:100A8000C0E78B4208D9002E00F0AF800021C6E9F4
:100A900000050846BDE8F087B3FA83F100294BD181
:100AA000AB4202D3824200F2B780841A65EB0303A3
:100AB00001209E46002EAAD0C6E9004EA7E7C2F14B
:100AC000200C01FA02F3974020FA0CF04FEA174E7F
:100AD00021FA0CFC1843BCFBFEF1050C0EFB11CCFB
:100AE0001FFA87F845EA0C4501FB08F3AB4204FA0C
:100AF00002F409D97D1901F1FF3C80F08B80AB42F3
:100B000040F2888002393D44EB1A85B2B3FBFEF017
:100B10000EFB103345EA034500FB08F3AB4207D94F
:100B20007D1900F1FF3C71D2AB426FD902383D44D0
:100B3000EB1A40EA014178E7C1F1200C8B4022FA20
:100B40000CF71F4320FA0CF405FA01F34FEA174E95
:100B500025FA0CF51C43230CB5FBFEF91FFA87F8A8
:100B60000EFB195543EA054509FB08FAAA4502FAA6
:100B700001F200FA01F308D97D1909F1FF3047D2DB
:100B8000AA4545D9A9F102093D44A5EB0A05A4B23D
:100B9000B5FBFEF00EFB105544EA054400FB08F8D7
:100BA000A04507D93C1900F1FF352DD2A0452BD91E
:100BB00002383C4440EA0940A4EB0804A0FB028947
:100BC0004C45C6464D4619D316D05EB1B3EB0E0266
:100BD00064EB050404FA0CFCCA404CEA0202CC4067
:100BE000C6E900240021BDE8F087314630460EE713
:100BF000AC46EDE6184601E74345E6D2B8EB020EF7
:100C000069EB07050138E0E72846D3E760468FE740
:100C10008146BAE7614677E708464BE7ACF1020C3C
:100C20003D4415E702383C4426E700BF704700BF4B
:100C30002DE9F047164690B005460F46002209A957
:100C4000304609F081FD099B1B780446A3B1DFF80B
:100C50002081002458F8041B304609F089FC58B163
:100C60000134392CF6D128463F4A3346012108F099
:100C700088FD6FF0850027E0BB680AAA1B69A1B256
:100C80003846984700281FDB0B98FFF78BFB34A3EF
:100C9000D3E90023FFF71AFD06460A980F46FFF72F
:100CA00081FB02460B4630463946FFF72FFA382CB7
:100CB00006460F460BDDCDE900672C4A2346082186
:100CC000284608F05EFD002010B0BDE8F087284BF4
:100CD00053F824A024F00403032B0CD00B2C0AD0CF
:100CE000CDE90267234ACDF800A023460821284613
:100CF00008F047FDE7E70F98FFF754FB18A3D3E987
:100D00000023FFF7E3FC80460E988946FFF74AFB75
:100D100002460B4640464946FFF7F8F9CDE9060181
:100D20000D98FFF73FFB0EA3D3E90023FFF7CEFC9E
:100D300080460C988946FFF735FB02460B46404635
:100D40004946FFF7E3F9CDE90267CDE904010A4A14
:100D5000CDF800A023460821284608F012FDB2E78E
:100D60000000000080842E4130D90000C1D800006E
:100D7000E0000020E0D80000FCD8000008B50AF030
:100D800073FABDE808400146014808F046BB00BFC1
:100D900068C60000F7B54B4C20460AF021FB2546FB
:100DA00068B10B2140F21112204608F04FF80146BD
:100DB00058B1226844480B2308F02FFB03E0216858
:100DC000424808F02AFB03B0F0BD2369A6681B68FF
:100DD000B76913F4006F4FF00B01204614BF4FF4B6
:100DE00000334FF480234FF4A032B8472468014603
:100DF00018B137480B232246DEE73649364B4B60A5
:100E00004FF400638B60F36913B1012228469847C1
:100E10002146324C32480B2208F0FFFA206850B1CC
:100E20000AF0DEFA064630B9236801461A682D48F2
:100E300008F0F3FA2660206880B16279217942F4E3
:100E4000007208F003F82379014600282ED02268AA
:100E50002548126808F0E1FA00232360234808F0CF
:100E6000DCFA2368002BAED02E69164FAB6801A9BF
:100E70005B6838469847031E22D13068019B434087
:100E8000C3F3C023227920680121914002691268CE
:100E900011421CBFB3FA83F35B0973B18368DB684B
:100EA00098470021212007F0CDF8DFE7216810489E
:100EB00009681A4608F0B1FAD0E783681B69EFE7C2
:100EC000EFDBDFE738BB0000A4C600007EC60000F1
:100ED000CDC60000B80600207D0D000000000020F7
:100EE00003C700001FC7000052C700009FC70000D3
:100EF00086C700002DE9F04FA5B0884603909146C3
:100F00001C46002599F8000010B9284600F015BECF
:100F100009F101032528099307D04146039B98470F
:100F20000028C0F20A86013545E21822002116A8E1
:100F300009F06BFB99F80130252B79D00022099834
:100F40001646964617469446014610F8013B2B2B51
:100F500000F09E8000F29580202B00F09B80232BD8
:100F600000F09B80BCF1000F05D09DF8600040F0C0
:100F700004008DF860002FB19DF8600040F008007B
:100F80008DF86000BEF1000F05D09DF8600040F0C4
:100F900010008DF860002EB19DF8600040F0200038
:100FA0008DF860002AB19DF8602042F040028DF873
:100FB00060209DF8602002F04400442803D16FF3C4
:100FC00086128DF860209DF860202A2B42F0800266
:100FD0008DF860207CD19DF8612042F001024B1C0D
:100FE0008DF861201A782E2A9DF861200CBF01210E
:100FF000002161F341028DF8612075D15A782A2AC7
:101000006BD0013300210A26184610F8012BA2F1FB
:101010003007092F40F2AA809DF860201A91C2F390
:10102000400040EAD17161F341028DF860205BE03D
:1010300009F1020209928DF863309DF86130DE07F4
:1010400040F16F8154F8042B0892002A08DA9DF8C9
:10105000602042F004028DF86020089A5242089203
:10106000580740F1668154F8047B002F80F26581B7
:101070009DF861306FF341038DF861304FF0FF3719
:101080005BE12D2B0BD0302B7FF46CAF01225BE7A3
:10109000012759E74FF0010E56E7012654E74FF0BC
:1010A000010C51E70CFB0202303A33461E4616F89B
:1010B000010BA0F13007092FF4D9994292D09DF885
:1010C00060101992D20F62F341018DF8601089E728
:1010D0000B4600224FF00A0CE8E79DF8612042F031
:1010E00004028DF861200233194611F8012B6C2A95
:1010F0005CD040D8682A46D06A2A61D04C2A67D092
:1011000019460B4613F8012B0993782A8DF86320B2
:1011100000F2DF80572A68D8412A04D0A2F14503A3
:10112000022B00F2D6809DF8623002F0DF0204212B
:10113000A2F1410A61F30203DAF100029DF86110A5
:101140008DF8623042EB0A0262F3C7110A068DF88D
:101150006110CBB200F1E38003F07802182A40F06E
:10116000B5806FF3C6038DF861309CE006FB01216A
:101170003039034648E7742A26D07A2AC0D19DF830
:10118000613006220DE05A78682A9DF8612006D168
:10119000012161F3C6028DF86120991CB1E7134665
:1011A000022262F3C6038DF86130AAE75A786C2AEE
:1011B0009DF8612001D10421EBE713460322F0E7FB
:1011C0009DF861300522ECE79DF861300722E8E7E1
:1011D000BDF8603023F4F04323F0020343F480436E
:1011E00043F00203ADF860308BE7A2F15803202BE7
:1011F0006FD801A151F823F0AB120000D312000008
:10120000D3120000D3120000D3120000D31200004A
:10121000D3120000D3120000D312000027110000E7
:10122000D3120000AB1200007D1200002711000055
:101230002711000027110000D31200007D120000CA
:10124000D3120000D3120000D3120000D31200000A
:10125000E1120000AB12000001130000D3120000E5
:10126000D312000001130000D3120000AB120000E3
:10127000D3120000D3120000AB1200009DF86230C0
:10128000012161F302038DF862309DF8613003F0B3
:101290007803402B02BF9DF8601041F001018DF8EA
:1012A0006010632A05D0002306E09DF86230022119
:1012B000E7E7003B18BF01239DF86020C2F340011F
:1012C0000B4363F341028DF86020B6E613F0380F4C
:1012D000E9D09DF8603043F001038DF86030E2E71B
:1012E0009DF86230032262F302038DF862309DF8AC
:1012F000613003F07803A3F140077B427B41DBE7D9
:101300009DF86230032262F302038DF862309DF88B
:10131000613013F0780F14BF01230023CCE70123C1
:10132000CAE79DF96020002AB4BF199A4FF0FF3236
:1013300095E699077FF5A2AE1A9F0023CDE91933F0
:101340009DF8623003F00703042B09D19DF861304A
:101350009A0705D49DF96130002BB4BF0D270627ED
:101360009DF862309DF8611003F00703012BC1F373
:10137000C30136D1CB1E042B20D8DFE803F00307CE
:10138000071F1F0054F8042BD31704E0073424F080
:101390000704F4E80223CDE916239DF86060B30743
:1013A00055D0099B03984A46414607F0EBFD0028BB
:1013B000C0F2C3830544DDF82490A3E554F8042B60
:1013C00001294FEAE273CDE9162305D19DF8583083
:1013D000169300231793E0E70229DED1BDF95820C8
:1013E000D2E7022B23D1CB1E042B13D8DFE803F066
:1013F000030A0A121200226816920023201D179376
:101400000446CAE7073424F00700F0E80223CDE9D8
:101410001623F5E754F8043B169301294FF0000317
:101420001793D3D00229B8D1BDF85830D0E7042B98
:1014300007D1073424F00704F4E80223CDE916238A
:10144000ABE7032B04BF54F8043B1693A5E79DF8C4
:101450006390B9F1780FAED8B9F1570F00F2A680BA
:10146000B9F1250F00F0EC80B9F1240FA3D9B9F13F
:10147000410F03D0A9F14503022B9CD8DDE91623C7
:10148000002A73F10001C0F2D381310700F1D2814B
:1014900016F0100618BF2026C3F30A5BC3F313032C
:1014A00006920793DDE90623CDE91223BBF1000F75
:1014B00040F0C281DDE90632134314BF4FF0010C46
:1014C0004FF0000C0799CB020699CA0243EA515328
:1014D00058464BEA02010C91C11719430D91DDE901
:1014E0000C01B9F1460F08BF4FF066090143CDE981
:1014F000122300F01482BCF1000F40F0D481129B43
:101500000493139B43F000430593DDE90423CDE9E5
:1015100012230023ABF2FE3B1A4605211BF1020FFA
:10152000C0F2CA811BB1DDE90401CDE91201BBF1B2
:10153000000FDDE9123100F3DA811399129BCBF130
:1015400004000BF11C0B01FA0BFBA0F1200CC340B3
:1015500021FA0CFC43EA0B0343EA0C03C140CDE93A
:10156000123109F0DF03472B40F0E081D01C02DB91
:10157000974280F2D781A9F10209002F5FFA89F919
:1015800000DD013F9DF86030990600F1CF81002F0A
:10159000D4BF00230123B9F1660F0E9340F0C88138
:1015A000BB1840F1C6814FF0000AC6E1A9F158030B
:1015B000202B3FF600AF01A252F823F0D117000014
:1015C000B7130000B7130000B7130000B7130000F3
:1015D000B7130000B7130000B7130000B7130000E3
:1015E0007D140000B71300006D1600007117000095
:1015F0007D1400007D1400007D140000B71300006E
:1016000071170000B7130000B7130000B7130000F4
:10161000B713000007180000D1170000D51700000D
:10162000B7130000B713000047160000B7130000FF
:10163000D1170000B7130000B7130000D117000046
:10164000414648466AE4002FDDF858900ADB3946E7
:10165000484608F084FF09EB000A0026B9F1000FA4
:101660000CD1A8E6484608F073FFF4E7169B8DF806
:10167000743000260DF1750A0DF17409AAEB090208
:1016800006B101329DF86200C30640F14B8202327E
:101690001999089B40060A4444BF1A995218002B16
:1016A00025DD9B1A9DF860205107C2F3800B00F1E5
:1016B0004B82570640F14482002E00F0438208938B
:1016C0004146039B304698470028C0F23682089B6B
:1016D00001355E463027089303EB050B089BABEB07
:1016E0000305002B03F1FF33089300F31F823EB183
:1016F000039B4146304698470028C0F21E820135C0
:101700009DF86220560640F17D829DF96120002AF5
:10171000C0F21C82A5EB090599F80000A0F1300287
:10172000092A4F4605EB090B09F1010940F23E82F7
:101730009DF86220199E900608D406EB0B09002E36
:10174000A9EB060B06F1FF3600F3378238782E2816
:101750000BD1039B414698470028C0F2EE81002E32
:101760000BF1010B00F331820137ABEB070B37E2D2
:1017700030072BD416F0100618BF2026DDE91623FB
:10178000002A73F1000105DA524263EB4303CDE90D
:1017900016232D260DF18D030093DDE916011DABF7
:1017A00018AA07F0A4FB8146002F0DF18D030BDB77
:1017B0009DF86010A3EB09026FF3861197428DF834
:1017C000601001D9BF1A19979A4647E72B26D5E72B
:1017D0000026DFE71698002800F09E810DF18D03AA
:1017E000009318AA1DAB002107F081FBBDF8623001
:1017F00003F0EF0343F4F04343F010038146ADF8E8
:1018000062300026D0E7169B07293FF6D4ADDFE80B
:1018100001F00D04060D08080D0D1D70CBE51D80AF
:10182000C9E52846E917C3E90001C4E51D60C2E522
:101830002D2631E62B262FE640F2FF739B452DD156
:10184000DDE906231343A9F1410918D1B9F1190FB4
:1018500095BF44F6496346F66963ADF87430ADF858
:10186000743094BF462366238DF876309DF860303F
:101870006FF386138DF860300DF1770AFCE6B9F14D
:10188000190F95BF44F24E1346F26E13ADF8743043
:10189000ADF8743094BF4E236E23E5E74FF0000C93
:1018A00010E60BF1FF3B92185B41002A73F1000137
:1018B000F7DACDE9122322E6049B05985B0843EA98
:1018C000C0734008B0F1333FDC46CDE904300BF182
:1018D000010BF1D2A3FB01ABCDE904AB059B48435F
:1018E000C31805930CF1020B013A012316E60233EB
:1018F00041F1000112A8CDE912310E9207F0C0FAB1
:101900000E9ADDE912010BF1FF3B0132001849414B
:10191000002871F100030BF1FF3BF7DA05E6002226
:1019200093460AE6BF1A4FF066092BE6002332E61B
:101930007B1C102BA8BF10239A4610211191002068
:101940004FF00061CDE914010AF1FF3ABAF1FF3F0F
:10195000DDE914101FD1129BCB180A93139B40EBA7
:1019600003030B93DDE90AAB6FF070414FF0FF30DA
:10197000594508BF50451AD350465946CDE9120182
:10198000B9F1660F53D1002A20DC30238DF8743072
:101990000DF1750A2BE0490841EAC0714008CDE914
:1019A000141014A80F9207F06BFA0F9ACCE70A9B59
:1019B0000F920B9A5B0843EAC273510812A8CDE953
:1019C000123107F05DFA0F9A0132D9E70DF1740A6E
:1019D0001199002909DD11A912A80F9207F070FAD8
:1019E0000F9A0AF8010B013AF2D1199200229DF8E0
:1019F0006010880601D4002F3FDD53462E2103F8E6
:101A0000011B92B1002F75DD5142B942A8BF394682
:101A10009DF8620019910029A7EB0107D4BF0021AE
:101A2000012161F345108DF862009A4620E011A96A
:101A300012A80F9207F044FA0F9A9DF860308DF8C3
:101A40007400302818BF02F1FF32990601D4002F2C
:101A500052DD2E238DF875300DF17603E5E711A9DF
:101A600012A80F9207F02CFA0F9A0AF8010B013F07
:101A7000002F02DD11990029F1DC0E9B002B3ED1D5
:101A80001A9709F0DF01452922D1002A5046BABF32
:101A900052422D212B21632A00F8029B8AF8011063
:101AA0000ADD642792FBF7F101F1300C0AF1030023
:101AB0008AF802C007FB11220A27824692FBF7F13F
:101AC00007FB112201F1300C30320AF802CB4270D0
:101AD000199A002A1EDC1A9A002AD4BF0022012279
:101AE0009DF8621062F3861100228DF862108AF868
:101AF0000020C1E59A46C0E70DF1750ABDE7002157
:101B00001A9150461AF8011D3029FAD02E2918BF13
:101B10008246B6E70122E3E7DFF838A10646AAF1DC
:101B20000509ABE5070748BF0132B1E5039B414614
:101B3000384698470028BFF6D1AD25B0BDE8F08FF4
:101B40002027C8E53027C6E50893D0E5A5EB090BAB
:101B50004E460BEB090519F8010B702820D11A9A93
:101B600002EB0509A9EB0502002A43DC5346324685
:101B70000398414607F006FA0028DEDB089B28445C
:101B8000034405469A46AAEB0503002B7FF713ACE6
:101B9000039B4146202098470028CEDB0135F2E721
:101BA000039B414698470028D2DAC6E7039B41468B
:101BB00098470028BFF6B0ADBFE7039B41463020F1
:101BC00098470028BFF6BBADB7E7039B41463020DE
:101BD0009847013EC0E5039B414698470028ACDB8F
:101BE0003E460BEB070517F8010BA0F13002092A5E
:101BF000F1D9B4E7039B41463020984700289CDB8D
:101C00000135AFE7D10601D4120706D5039B414643
:101C100030209847002890DB01359DF86220D306DC
:101C200007D59DF86300039B41469847002884DB55
:101C30000135199E2E44721B002A02DC53464A4687
:101C400096E7039B4146302098470028FFF675AF82
:101C50000135F0E7B6C700000346006810B50C4632
:101C6000114608B1027822B9024A204602F0CAFDA4
:101C7000204610BDB7C7000010B50C68D1E90112AD
:101C8000FFF7EAFF034A03460821204607F079FDE3
:101C9000002010BDBCC700002DE9F0478AB0054602
:101CA00001A805F027FC019B1B4ADFF87880DFF8CC
:101CB0007890DFF878A0182606FB00360821284621
:101CC00007F05FFD019CB44203D300200AB0BDE8D9
:101CD000F08705AF394614222046FFF7BDFF424684
:101CE00003460821284607F04CFD204609F078FB02
:101CF0000A4A002814BF4B4653460821284607F0DD
:101D000040FD142320460649049302AACDE9025758
:101D1000183409F06FFBD6E7DBC7000045D9000097
:101D2000791C0000E5C70000CCC70000D2C7000046
:101D30002DE9F043114BDFF8489053F82140013171
:101D400087B053F8218006460027A04503D83846BF
:101D500007B0BDE8F083204609F042FB054658B1C4
:101D6000142201A92046FFF777FF4A4603460821BF
:101D7000304607F006FD2F461834E6E76CBE00003B
:101D8000EAC7000010B5082104461E4A07F0F9FC16
:101D900000212046FFF7CCFF20B91B4A082120462E
:101DA00007F0EFFC08212046184A07F0EAFC012161
:101DB0002046FFF7BDFF20B9134A0821204607F04F
:101DC000E0FC08212046124A07F0DBFC02212046F5
:101DD000FFF7AEFF20B90C4A0821204607F0D1FCDE
:101DE000082120460B4A07F0CCFC03212046FFF7D0
:101DF0009FFF20B9044A0821204607F0C2FC0020BA
:101E000010BD00BFF0C70000FFC7000007C80000FA
:101E100016C8000024C800008B1E022B2DE9F041DB
:101E200007468846144633D860681022002108F01F
:101E30008BFCB8F1020F06461ED0A0680A220021D2
:101E400008F082FCC5B2214A2B460821384607F02B
:101E500098FCB8F1040F1ED0102D0FD0202D10D0FB
:101E6000082D10D13378DBB2194A0821384607F023
:101E700088FC0020BDE8F0812025E4E733889BB290
:101E8000F2E73368F0E7134A0821384607F079FC97
:101E90006FF01500EEE7E0681022002108F054FC16
:101EA0000D4A034604460821384607F06AFC102D07
:101EB00006D0202D07D0082DE5D1E4B23470D8E744
:101EC000A4B23480D5E73460D3E700BF81C80000F6
:101ED000ACC8000096C80000BDC8000070B50F4C2B
:101EE000054623780E4639B133B10D4A012107F07A
:101EF00048FC6FF00F0070BD83F00103237033B115
:101F0000084A0821284607F03CFC01232370284694
:101F1000314607F05BFC0020EDE700BF8A1200208D
:101F2000D1C800000CC900002DE9F74F06462E4825
:101F3000DFF8CC90DFF8CCA0DFF8CCB00023036052
:101F40000D462A482A4903600B7014460091012D62
:101F5000274654F8043F21D91846022249460193E6
:101F600008F012FB019B88B922689278003A18BFEA
:101F7000012203EB020851460222404608F004FB0E
:101F800030B9009A01231370013DE0E70022F0E729
:101F90004946404608F0ECFAB0B904370022114631
:101FA000786808F05BFB134B0022114618607868D4
:101FB00008F054FB104B114918603046FFF78EFFB4
:101FC000002003B0BDE8F08F98F800202D2AE5D15D
:101FD00098F80120002AE1D043465A4608213046AD
:101FE00007F0CFFBD0E700BFC8060020D0060020D6
:101FF0008B120020C4060020CC0600200D2000001B
:1020000036C9000039C900003CC9000070B53E4B1C
:1020100005461878182802D10878112831D0013ADD
:1020200008465418844225D18A5C1A700A78374CC5
:10203000A2F13003092B04D922F02003413B052BE8
:1020400004D823683249CA54013323602368022B21
:1020500034D110222E48002108F076FB2D4A136857
:1020600003F8010B13602C4A13680133136000233B
:10207000236023E010F8016B182ED3D10678112EBF
:10208000D0D1254C254A23680821284607F079FB42
:1020900000212846FFF722FF214B187870B9214A0A
:1020A00023681168042B0ADC08B11160236013F067
:1020B00003010BD1126813681BBA136070BD086866
:1020C00000BA41F8040B043B0120EBE75B4203F04C
:1020D000030358BF5942022907D112681168C1F39E
:1020E000072343EA01239BB2E7E70329E6D11068FF
:1020F00002681104C2F3074301F47F010B4302F4A9
:102100007F4213430360D9E78C120020C8060020E9
:1021100088120020C4060020D006002051C900000B
:102120008B120020CC06002013B5044606F05EFB9F
:10213000C0F307230193C0F307430093044A030E3F
:102140000821204607F01DFB002002B010BD00BF93
:10215000F8C900002DE93048044609F070FC4FF43E
:102160007A75A0FB05BC05FB01CC4FEADB3242EAE5
:102170004C432046034A082107F003FB0020BDE83A
:10218000308800BF11CA000010B5044604F086F87C
:10219000084A03460821204607F0F3FA064A20467B
:1021A000082107F0EEFA0548214606F04DF8002018
:1021B00010BD00BF20CA00003FCA0000212200005D
:1021C00030B5014687B00446114806F03DF8114A83
:1021D000002312F8011BAA2903D10133B3F5006FC4
:1021E000F7D1C3F5006164224A43D20A0592002563
:1021F0004FF40062CDE90312CDE901232046064BDE
:10220000064A0095082107F0BCFA284607B030BD01
:1022100001230000A02600208026002049CA0000DB
:10222000F0B587B0D0F8A07004460D4609F0B1FBB8
:10223000064605F021FF234B234A002E08BF1E4609
:10224000224BCDE90046844218BF13460821284698
:102250001F4A07F096FAD4E90A23CDE9022394F93C
:102260000E301C4A00930821237B284607F089FA88
:10227000204606F031F8626E00920346164A0821A5
:10228000284607F07EFA05A9204609F086FB03469A
:1022900030B1124A0821284607F073FA07B0F0BDA2
:1022A000059A6423B91ACDE900214B430C4AB3FBCC
:1022B000F7F30821CDE9027328463B4607F061FA9F
:1022C000ECE700BF91CA0000B6CF00008FCA000043
:1022D00094CA0000A0CA0000CCCA0000E3CA0000F3
:1022E00010CB000010B5044608F0BEFF034A0346B9
:1022F0000821204607F045FA002010BD47CB00001A
:10230000F0B5D0F8A06089B004460D4607A909F0E1
:1023100044FB034630B1104A0821284607F031FA41
:1023200009B0F0BD204609F034FB0C4F079A002895
:1023300008BF3846B11A6423CDE90221CDE9000671
:102340004B43074AB3FBF6F30821CDE90463284663
:10235000234607F016FAE3E7E3CA000091CA00003B
:102360005DCB0000014806F0DFBB00BFF4BF0000FA
:1023700008B5D0B14368042B11D100220368BFF324
:102380005B8F53E8001F012903D143E80020002898
:10239000F7D1BFF35B8F074808BF104608BD3BB1BC
:1023A000006805F099FA0020F8E76FF4E040F5E7DF
:1023B0000148F3E7E98FFFFFEA8FFFFF10B50446FE
:1023C00018B90D4B0D485B689847616808290DD016
:1023D00031F004030AD011F0020108D00848214668
:1023E00009F05DF8002323600023636010BD2068BE
:1023F000142208F00AF9F7E7B002002067CC0000C9
:10240000D406002010B5044618B9164B16485B6870
:1024100098476368042B23D0082B21D0CBB92368BD
:10242000BBB912484FF0FF324FF0FF33214605F0A1
:10243000A5F908B923681BB90A4B0D485B68984792
:1024400020681422002108F0E0F8636843F00203DA
:102450006360206809F04DF8636843F0010363602E
:1024600010BD00BFB002002067CC0000D4060020E1
:102470008DCC000008B508B34368042B10D10122AD
:102480000368BFF35B8F53E8001F002903D143E8C3
:1024900000200028F7D1BFF35B8F0BD1002008BDCF
:1024A00053B100684FF0FF324FF0FF3305F096F95B
:1024B0000028F3D00348F2E70348F0E76FF4E04068
:1024C000EDE700BFE98FFFFFEA8FFFFF08B5064980
:1024D00006484023142208F0C7FFBDE8084004491D
:1024E000044806F083BB00BFF0060020D40600209D
:1024F0000CC00000FCBF00002DE9F84FB0F81890A8
:1025000019F00808044693460DD001290CBF49F084
:10251000100949F02009A0F818908BF31188BFF337
:102520006F8FBDE8F88F09F00709022907D120460F
:1025300006F0B3FE0028F0D00128238B50D1676944
:10254000218B002F15DA256821F00701C4E90088E6
:1025500041F0010121830026218B01F0070ACA45C1
:1025600002D0A368002B5CD10DB9002E74D00023DB
:1025700058E001F007035A1F012A20D821F0070173
:10258000062B256889B2C4E900880CD1002D2B46A2
:1025900038BF00232BB1628B1B6801326283002B92
:1025A000F8D141F002012183204606F076FE06466E
:1025B0000028D1D0238B43F020032383CBE7042BC7
:1025C0000CD121F0070189B22183204606F065FE77
:1025D00005460028BFD041F0200121830025BAE73D
:1025E000032809D1226923F00703166843F0060384
:1025F000238300252F46AFE7042806D1226923F064
:102600000703566843F00403F2E7052806D1226960
:1026100023F00703966843F00503E9E700252E46FB
:10262000E8E7012341F0080121838BF31188BFF310
:102630006F8F03BB002D33D116B121492046B0471F
:102640004FF02003EFF3118B83F31288BFF36F8FEA
:10265000238B23F008032383238BDA0628D523F06A
:10266000100323830121B4F8189009F00709002909
:102670007FF45BAF51E7A1680029DBD00B68D1F88C
:1026800004B0002B38BF0023994652463B462046F3
:10269000D847B9F1000FCDD0D9F800304946EEE760
:1026A00029463B46524620462D6806F012FEC1E7F9
:1026B00013F020011EBF23F0200323830221D2E761
:1026C000FF9200002DE9F84305464FF02003EFF399
:1026D000118683F31288BFF36F8F104B1C68002C98
:1026E00038BF00249CB10E4FDFF838804FF00C0942
:1026F000D4E90132002D08BF13462BB198F81420FD
:1027000009FB02F2B85C98472468002CF0D186F3EC
:102710001188BFF36F8FBDE8F88300BFF00B002076
:10272000FC0B00202C12002000F01F0301229A4015
:102730000A4BBFF35B8F400903EB800050E8003F7A
:1027400043EA020140E8001CBCF1000FF6D1BFF3E0
:102750005B8F1A4214BF012000207047080C002034
:1027600030B51D4B1D7DBFF35B8F05F01F030122AC
:102770009A401A4B690985B0D04303EB810353E8B3
:10278000001F01EA000443E8004CBCF1000FF6D141
:10279000BFF35B8F114217D0114C0C2202FB054294
:1027A00007CA01AB83E807000E4A7AB193E8070035
:1027B00008F056F80020FFF785FF0C236B4300223A
:1027C000E118E250C1E9012205B030BD82F3118861
:1027D000BFF36F8FEEE700BF2C120020F80B002034
:1027E000FC0B002061A800002DE9F041374BDFF819
:1027F000F4801C7D88B007462046FFF795FF60B93E
:102800006E463A462146304606F021FE96E807001D
:102810000C2505FB048585E807000C23634308EBC2
:10282000030218F80300650904F01F06C8B37B1CF7
:102830000FD0D2F808E02648264A4FF4004C002179
:102840000023ECFB0E01FEF779F80121381A09F09C
:10285000D8F805F067F90120FFF734FFBFF35B8F6D
:102860001D4B0122B24003EB850353E8001F1143C7
:1028700043E800100028F8D1BFF35B8F0C2303FB63
:10288000048494E8070005AB83E80700134A1AB1F3
:1028900093E8070007F0D1FFFFF762FF05F01CFB8C
:1028A00001200F4ABFF35B8F0123B340DB4302EBF0
:1028B000850555E8002F1A4045E800210029F8D188
:1028C000BFF35B8F08B0BDE8F08100BF2C12002081
:1028D0003F420F0040420F00F80B00203BA80000D1
:1028E000080C0020FC0B00200B6801330B60014B2F
:1028F0001B68184728000020014B1860704700BF74
:102900002800002007B50B4600210246019103482C
:1029100001A9FEF7EFFA03B05DF804FBE928000017
:1029200030B585B0CDE901010446002501A905486F
:102930000395FEF7DFFADDE902309842B8BF25546F
:1029400005B030BDF593000008B54FF02002EFF35D
:10295000118382F31288BFF36F8F01F0A3FF034846
:1029600006F05BFD01F0C0FBFCE700BFBACC000045
:1029700010B581680446083101F0F0F8A168034AF7
:1029800020460831BDE8104001F08AB8E3CC0000D1
:1029900037B504468068D0F8A4335A070D4605D5EC
:1029A000002106F085FEE06806F0D1FFE368DB68F1
:1029B0006BB9002D37D0A068423006F066FEA368E0
:1029C00098B303F1420103F5F17007F096FDA26898
:1029D000E0680DF106034232294606F0BBFF58B904
:1029E000A06800F5F171423007F087FDA068423021
:1029F00006F04BFEADF80600204607F0E7F8A368A6
:102A0000D3F8A0339B0603D50949606906F043FE5D
:102A1000204601F051F9A368BDF80620DA879A87AD
:102A2000204601F00BF903B030BD83F8E201CEE798
:102A300010BE00008368022210B51A719B6B044619
:102A4000CBB9826882F84230D3638368D3F8A43369
:102A5000DB040BD50321084B084A07F067F9A0688F
:102A60006FF4805100F5697006F0C3FD2046BDE8A3
:102A7000104001F03BBA10BDF1CC0000E7C70000E8
:102A80002DE9F04F0023ADB0CDE90533836804464E
:102A90004233039307F0A0F8204607F025F818B951
:102AA0009F49606906F0F7FDA068142200210830F4
:102AB00007F0ABFD204607F021FCA168E0688A8F93
:102AC0004231002606F07DFF204607F091FC4FF0D2
:102AD000FF38B146B24611AF02963546B346DDE93E
:102AE0000532012A00F0D780192B40F2AF80069BF7
:102AF000022B40F0AF808B4B8B4A012114E0039AEC
:102B00000223394606A807F08AFA06997A680392E2
:102B1000034629B96FF0070528462DB0BDE8F08FB0
:102B2000012905D120B1814A204607F0FFF8F1E7DD
:102B3000059B4BB3386801F035F898B166B1A568CC
:102B40000D9608350CAE0FCE0FC533682B602046AE
:102B5000FFF70EFF0125DFE7754A0121204607F048
:102B6000E5F8D7E7059B7BB13A682946204601F096
:102B700041FA022800F08F80032805D0059B01331D
:102B8000059301230293AAE7BAF1000F05D1396832
:102B900007AA584607F02EFB0546043708F1FF3810
:102BA000002D41D0029B4BB1EB683BB1204607F0B2
:102BB00013F8204601F042F85E4ACEE7EB68CBB14D
:102BC000A368DDF81490AE4603F1080CBEE80F00D0
:102BD000ACE80F00DEF80030CCF80030AB684BB941
:102BE0006B7CFE2B01BF95F8108009F1010308F101
:102BF000FF380593D5F804C0BCF1000F08D0AE46ED
:102C0000BEE80F000CAE0FC6DEF80030336066463B
:102C1000AB46B8F1000F03D1069B022B7FF45FAFE8
:102C2000059B013305935AE7059B63B9A368DB69EC
:102C30000BB1DB683BB9404B0093404A119B01212B
:102C4000204607F073F84FF0010AE2E7B8F1000FF1
:102C50007FF455AF029B4BB1204607F0EEFBA26814
:102C60001A23423211A905A807F0D9F9059DA068D9
:102C70002CAB03EB8503002243F86C2C436973B93A
:102C8000002E3FF447AFC368B3423FF460AF0D96E8
:102C900000F1080556E7059B192BDBD927E7037ED2
:102CA000A5EB0905B3B1427E4FF6FF71FF2A08BFBD
:102CB0000A469D4202D313449D420BD98368204AA1
:102CC0000121204607F032F82046FFF751FE6FF051
:102CD000150521E74FF4006100F5697006F07AFCF4
:102CE000A06800F5876006F0CEFCA36811AA29460B
:102CF00002EB89025B69204698470546A0684FF0C1
:102D0000FF324FF0FF3300F5876006F0FBFCA06850
:102D10006FF4006100F5697006F06BFCFCE600BF23
:102D200045CB0000AACD0000ECC7000035CD000067
:102D300049CD000067CD000096CD0000F7CF000020
:102D4000CECD00002DE9F04F04468068B9B00121D6
:102D500000F5697006F03EFCA3681B79022B17D1C1
:102D600000230B93A36860689E6B03681D690BAB1F
:102D7000C6B110221DA9A8470B9A4AB11DA9204629
:102D8000B047A3689B6B002BECD12046FFF752FEA7
:102D9000A0686FF0010100F5697006F02AFC39B0F7
:102DA000BDE8F08F01220DF12B01A8470B9B002BF2
:102DB000EED09DF92B209DF82B30A068002AD1DBA6
:102DC0004279032A00F20183DFE812F00400810255
:102DD0009802FF020D2B1AD00A2B18D0B0F8A423AA
:102DE0006FF3CA02A0F8A423092B4DD033D8002BCF
:102DF000B8D0082B00F0CD81A3F120025E2A00F2AA
:102E0000D481012106F054FC9DF82B10EBE0D0F8A2
:102E1000A423C2F3C7022AB1D0F8A423C2F3C70285
:102E20009342E1D1B0F8A423818F63F3CA02A0F8E2
:102E3000A42361B906F03CFCE06806F088FDAE49C9
:102E4000606906F028FC2046FFF7F4FD8AE720467B
:102E5000FFF716FEF7E71B2B13D07F2BCCD1D0F852
:102E6000A0339D077FF57EAF012106F021FCA3680A
:102E7000D3F8A033190700F19481204606F098FF9B
:102E800070E7012343716DE7D0F8A0339B077FF50E
:102E900069AF012106F00CFCA068828F40F29F13FD
:102EA0009A423FF45FAFC28F00F1420100F5F1702A
:102EB00007F0A0FBA268D38F1344002583F8E251EA
:102EC0001DA91A2302F5F1720DA807F0A8F80D99B3
:102ED0001A293FF647AF38AB03EB810343F86C5C2C
:102EE000A368DA8F134493F84130202B00F06F82EF
:102EF000093B042B40F26B8201294FD800250C9529
:102F00000C9B38AA02EB8303002653F86CAC5046A6
:102F100006F0BBFBB04681460496374618AA3946F0
:102F2000284601F041F88346002844D1012E63D1A0
:102F30000C9B38AA02EB830353F86C0C06F0A5FB3C
:102F4000A268064608324146284601F02DF805469B
:102F5000006806F09AFB864206D02968821B92B26E
:102F60003144204606F022FFA068C38F034493F843
:102F70004230202B3BD0093B042B38D9D0F8A0336A
:102F8000DF072FD5002106F0A3FB2021204600F00B
:102F900075FFA068012106F09BFBE3E601390020E4
:102FA0000EAB009301900CAB1DAA07F043F9054648
:102FB0000028A5D1D6E6DBF800004A46514607F0C6
:102FC000E3FA68B9DBF8000007F0C2FA049B834219
:102FD00038BF03469BB2002E08BFB84604930136A3
:102FE00001379BE72021204600F048FFBAE6012187
:102FF000204606F08DFDB5E67FF6B4AE0C9B38AAF0
:1030000002EB830353F86CAC504606F03EFBA3681A
:103010000690A3F830B0DFF8E4B00596CDF80C8048
:10302000A26803990832284600F0BEFF039B0133D3
:1030300007460393BAF1000F54D13B68002B5FD1D0
:10304000A2681386059B013B0593E9D12A49606973
:1030500006F021FB204600F049FF0C9B38AA02EB4A
:10306000830308F1010953F86C0C06F00EFB41468E
:1030700013AA0746284600F097FF8046A068D8F8B4
:10308000001040F29F1200F5F17007F040FAD8F8F6
:1030900000A04FF6FF7818AA4946284609F1010B0F
:1030A00000F082FF002867D0A368006803F5F17381
:1030B000002213F801CB815C614505D121B10132B9
:1030C0004FF6FF718A42F4D10FB1BA4208DB904546
:1030D00006F1FF36A8BF9046012E1FFA88F84BD0A4
:1030E000D946D8E700680028A7D0069A514607F0CD
:1030F0004BFA0028A1D093E745CB0000B5CF0000E4
:103100005846079306F0C1FA049BA168C21892B210
:1031100058464F8D099206F0B8FA079B089018465A
:1031200006F0B3FA099A0899079BA2EB0009A06878
:10313000B0F830C07F1A97FBF2F292B2BCFBF2F10A
:1031400002FB11C20CF1010E92B21FFA89F9A0F82C
:1031500030E05AB90093A04A5B460621204606F0AB
:10316000E5FD4946204600F053FD6BE79B4A0621EA
:10317000204606F0DBFDF4E7B8F1000F3FF4F2ADB6
:10318000A8EB070292B20AEB0701204606F00EFEFA
:10319000E8E5D0F8A0339E077FF5E4AD012106F005
:1031A00087FA204606F01FFEDCE5D0F8A023920740
:1031B0007FF5D8AD013B162B3FF6D4AD01A252F8F6
:1031C00023F000BF9D3300002132000029320000AF
:1031D0007B2E00009133000049320000652D000075
:1031E000652D0000652D0000652D000051320000A6
:1031F00059320000652D000083320000652D00006B
:103200008D320000652D0000652D0000652D000049
:10321000652D000091320000652D0000BF320000D6
:10322000204606F0E0FC9DE5204606F0D5FC204651
:1032300006F05AFC18B96A49606906F02CFAA068D1
:10324000012106F035FAFEE5204606F0D4FC89E5BA
:10325000204606F0D9FC85E5D0F8A0339F0603D5BB
:103260006049606906F017FAA368D3F8A0339E0698
:1032700003D55D49606906F00EFA204600F036FE7F
:1032800070E500212046FFF783FB6BE50121F9E79C
:10329000204606F09BFCA368002283F84220DA63F4
:1032A000A068012106F004FAA368D3F8A0339D06B4
:1032B0007FF558AD4D49606906F0EDF952E52046BD
:1032C00000F040FDA068012106F0F2F94AE55B2B11
:1032D00001D10223D6E5D0F8A023900706D5622BB2
:1032E00008D14FF0FF31204606F036FCA3680022DB
:1032F0005A7137E5662BF9D10121F4E700224271BA
:10330000A268D2F8A01389077FF52CAD313B1B2BA7
:103310003FF628AD01A151F823F000BF993300001A
:10332000A5330000B93300008D330000652D000087
:10333000652D0000652D0000652D0000652D000045
:10334000652D0000652D0000652D0000652D000035
:10335000652D0000652D0000652D00008D320000F8
:10336000833200004932000021320000652D000048
:1033700091330000652D00009D330000652D000095
:10338000652D0000652D0000A93300000323537153
:10339000204606F021FCE5E403235371204606F0A5
:1033A00015FCDFE403235371A068D0F8A01301F0EB
:1033B000010181F00101EEE503235371A368D3F805
:1033C000A0339B077FF5CEAC57E500235AE50029D3
:1033D0003FF494ADE3E500BFE9CD0000E7C700008E
:1033E00045CB000015BE00001ABE000010BE000054
:1033F0002DE9F043044680688846D0F84C1489B023
:1034000015461F46002961D14FF48A6207F0FDF886
:10341000A3682268E0681A6006F03FFBA06800F528
:10342000876008F066F84FF47A794FF46A76A068FE
:10343000304408F0B7F9A0680022831901214844FC
:10344000103608F092F9B6F57A7F09F11409EED139
:10345000A369A068002602211E6000F5697006F0CD
:10346000B9F8A3681B4A9A62186806F00EF9A368B7
:10347000194A83F82C00606866F38205C3F8A053EC
:10348000036841461D682346A8470546D0B9A3688E
:1034900001221A71D4E9090100220023CDE9062393
:1034A0000E230393109B0495CDE9017300940B4BFD
:1034B0004FF4006204F0B2FFA368216AC3F84C0421
:1034C00004F0FAFE284609B0BDE8F0836FF07705F6
:1034D000F8E700BF18005000F19600002D350000FD
:1034E00010B5044680680379012B19D14FF0FF32E3
:1034F0004FF0FF3300F5876006F004F908212046FD
:1035000000F0E2FB0849606906F0C5F82046FFF7C5
:1035100091FAA06800F5876006F0B5F8002010BDAC
:103520006FF08500FBE700BF44CB0000F8B5044610
:103530004068036800219B68984700283FD12046D7
:10354000FFF7CEFF00283AD11D4F1E4EA06800F5B0
:103550007A704FF0FF324FF0FF33032104F004FA8A
:103560000546A0684FF0FF324FF0FF3300F587604B
:1035700075B106F0C7F820462B46134A012106F024
:10358000D5FBA068BDE8F84000F5876006F07BB881
:1035900006F0B8F8606803685B6903B198473A467B
:1035A0002046022106F059F820463246002106F056
:1035B00054F8A06800F5876006F065F8C6E7F8BD26
:1035C00011960000452D0000EFCD000010B50D4A0A
:1035D0000446082106F0D5F820460B4A082106F0DB
:1035E000D0F82046094A082106F0CBF82046084AC0
:1035F000082106F0C6F82046064A002100F050FADD
:10360000002010BD06CE000044CE0000A3CE000076
:10361000F7CE000091CF00002DE9F04716461F4677
:103620002A4ADFF8B480DFF8B490DFF8B4A00B4684
:103630000821044606F0A5F80025AF4231D9735D94
:103640004A460821204606F09CF80135102D20D16D
:103650001F4ADFF88C80DFF88C900821204606F0A6
:1036600090F80025AF422AD9735DA3F120025F2AAA
:1036700028BF2E234A460821204606F082F801354D
:10368000102D14D12046134ABDE8F047082106F05A
:1036900078B86A07D1D152460821204606F071F861
:1036A000CBE742460821204606F06BF8CDE76B07D2
:1036B000D8D142460821204606F063F8D2E74246B8
:1036C0000821204606F05DF8D9E700BFA7CF00002B
:1036D000B8CF0000BACF0000B4CF0000AECF0000DA
:1036E000B6CF000045D4000010B58368D3F8A033EE
:1036F0009B06044603D50449406906F06EF8A368AA
:10370000024A9A62002010BD20BE0000180050003E
:1037100008B58369034A1B68082106F032F80020C7
:1037200008BD00BFD6CF00007FB50F4E0446002570
:10373000A268E0680DF10E0302F5F172012106F0B6
:1037400009F9BDF80E00A36850B103F5F1730093B9
:1037500032462B460821204606F013F80135E7E7EC
:1037600083F8E20104B070BDE6CF000010B58368B5
:10377000D3F8A0339A06044603D50749406906F0FA
:103780002CF8A368D3F8A0339B0603D503496069DE
:1037900006F023F8002010BD27BE00002CBE00005C
:1037A000022907B50DD1536801930E4B009313689E
:1037B0000D4A012105F0E5FF6FF0150003B05DF83B
:1037C00004FB8368094AD3F8A03313F0020F4FF0CB
:1037D0000801074B18BF1346064A05F0D2FF002028
:1037E000ECE700BFFDCF0000F4CF000030CC0000BC
:1037F000F0CF000012D00000F0B5012985B00446DA
:103800000DD053680193584B00931368574A012118
:1038100005F0B7FF6FF01505284605B0F0BD8368C9
:10382000D3F8A0339A0603D55149406905F0D5FF76
:103830006FF0F901204600F0D5F9FA21204600F09A
:10384000E7F9A06800254FF4D072294600F5F17021
:103850008DF80B5006F0D9FE4649606905F0BDFFB2
:10386000606906F02DF84FF47A76606803680122EB
:103870001F690DF10B0103ABB847039B53B9013E20
:103880004FF47A70B6B208F0DCF8002EEDD16FF08C
:10389000850531E09DF80B30A2681B2B58D092F8BB
:1038A000E2111B29E1D1522B52D11544002385F896
:1038B000E23192F8E3115B2952D102F5F2701F4612
:1038C000022610F8011B01363B29B6B22AD1B6F503
:1038D000D07FDCD006F5F1701044002310F8015BB6
:1038E00055BBFA2B28BFFA23FA2F53853B4628BF36
:1038F000FA2382F8E2511385A368D3F8A0339B061C
:1039000003D51D49606905F068FF002D84D0A368C8
:103910001A4A9A6203211A4A204605F032FF6FF0D4
:10392000070579E707EB870301EB4303303BB6F567
:10393000D07F9FB2C5D1AAE703EB8303013605EB25
:103940004305B6B2303DB6F5D07FABB2C6D39EE7E5
:1039500051190135ADB2092D81F8E23185D9002325
:1039600082F8E23193E700BFFDCF0000F4CF000002
:1039700032BE000021D4000036BE00001800500006
:1039800023D0000010B5044613460A4601460648F7
:10399000FDF7B0FA23691B7923B12046BDE810403A
:1039A00005F08EBF10BD00BFD99800002DE9F0478B
:1039B000044690460E4600296ED00025735D202BEC
:1039C00025D0093B042B22D9DFF8D090304606F0F1
:1039D000BFFDA368598D80B2401BA1EB080398423C
:1039E00006EB050A15D95046002710F8012B202AAE
:1039F00006D0A2F1090CBCF1040F02D80A2A31D07A
:103A00003B4608EB070291422BD90137EDE7013520
:103A1000D4E753460027B84217D013F8012B0A2ADF
:103A200005EB07091BD1606905F04AFF3A4651468C
:103A3000204606F00CF91949606905F069FF414616
:103A4000204609F1010500F0E3F86069711905F0FD
:103A50005FFF60691149BDE8F04705F059BF0137C4
:103A6000D9E71F46606905F02BFF3A4651462046CC
:103A700006F0EDF83D44735D202B0BD0093B042B81
:103A800008D96069494605F043FF4146204600F0E9
:103A9000BFF89BE70135EEE7BDE8F08745CB0000B6
:103AA0002DE9F04F0E4600218DB0044617460D4615
:103AB00007AA304601F1010800F076FAB8B99DB1C5
:103AC00027B13A460821204606F030F9DFF8808019
:103AD000DFF880A0DFF880B000214B1C07AA304639
:103AE000049300F061FA60B90DB0BDE8F08F006892
:103AF00010B106F02DFD80B2854238BF0546414623
:103B0000D6E70368D0F804901148059306F020FD2D
:103B1000059B07468BB11A787AB1CDE9013800953B
:103B2000434652460821204606F000F9B9F1000F3D
:103B300005D16069594605F0EBFE0499CDE76A1C92
:103B400002EB470292B249462046FFF72FFFF4E707
:103B50003ED4000026D4000045CB0000F7B5064651
:103B600008680D46B8B106F0F3FC84B20B4F384636
:103B700006F0EEFC2B680A4A009704440821304600
:103B800006F0D4F8A4B269682246304603B0BDE816
:103B9000F040FFF70BBF0446E8E700BF3AD400004F
:103BA000EACD000010B50749044606F0E1FC38B143
:103BB0000549204606F0DCFCB0FA80F0400910BD53
:103BC0000120FCE730D4000033D400008368D3F830
:103BD000A0339B0603D50249406905F064BF7047D6
:103BE0003ABE00000A1E0DDC0ED042238168D1F8D7
:103BF000A013890608D5002A04494069B8BF52427B
:103C000005F051BF4123F1E7704700BF41D40000E8
:103C10000A1E0DDC0ED044238168D1F8A01389065A
:103C200008D5002A04494069B8BF524205F03BBF9D
:103C30004323F1E7704700BF41D4000010B50446AC
:103C400005F052FF28B160690549BDE8104005F054
:103C50002ABF04F1080005F033FF0028F3D110BD9E
:103C600045CB00002DE9F0410646054656F8084FC1
:103C700004F12000A28FE18F06F0BBF93046B4F8C2
:103C80002480E78C05F01CFF18B10A49686905F02B
:103C90000AFFB84507D1218C638C2846C91ABDE8B4
:103CA000F041FFF7B5BFE18CA38C2846C91AFFF796
:103CB00099FFF0E745CB0000826802494069423233
:103CC00005F0F1BEE7C7000008290A4617D8836847
:103CD00093F82E10914212D083F82E208368082A80
:103CE000D3F8A03305D0990609D50549406905F0F8
:103CF000DABE9B0603D50349406905F0D4BE704780
:103D000048D400003FBE000038B50D46097804468F
:103D1000FFF7DAFF6A78072A11D8A36893F82F1003
:103D200091420CD083F82F20A368D3F8A0339B06D0
:103D300005D560690249BDE8384005F0B4BE38BD1C
:103D400051D40000F8B583689A8F0546002A4ED0FA
:103D5000D88F00284BD04130184403F14206034667
:103D6000C41AB342A4B219460DD311F80179202F19
:103D70003BD01946013B0878202804D001349E42EC
:103D8000A4B21946F5D9631C4E1C121B19443046C7
:103D900006F019FCA9688A8F121B92B28A870A441E
:103DA0000023614282F8423009B2284605F0B0FE95
:103DB000AB68D3F8A0339A0603D50D49686905F0BE
:103DC00072FE33460B4A0821284605F0AFFF28460D
:103DD000FFF7FCFEAB68D3F8A0339B0607D56869F4
:103DE0000549BDE8F84005F05EBE0B46B8E7F8BDF2
:103DF00044BE0000E7C7000048BE00002DE9F041C6
:103E000004460D4617460AB1FFF7E0FEA368D3F853
:103E1000A023D88F520700F14200034421D5184651
:103E200006F096FBDFF850800646013E14D220468D
:103E300050F8083F9A8FDA8705F042FE28B107B1A3
:103E40001DB10B49606905F02EFE6942204609B29A
:103E5000BDE8F04105F05CBE6069414605F023FE17
:103E6000E3E7044A0821204605F060FFDFE700BFD2
:103E700045CB0000E7C700008FCA000013B5836878
:103E80008DF80710D3F8A0230446D00723D5D98F87
:103E90009A8F8A421FD0481CD8870B449DF8072070
:103EA00083F84220A368D3F8A013890711D5D3F86B
:103EB000A03360690B4913F0040F18BF2A2205F0E4
:103EC000F2FD204605F010FE18B10749606905F0C3
:103ED000EAFD02B010BD01220DF10701204605F0F8
:103EE00032FFF6E745D4000045CB000083680A4A5C
:103EF0001B6810B50446022105F018FFA368D3F82B
:103F0000A0339B0707D52046FFF7D6FE2046BDE825
:103F10001040FFF7A7BE10BDE7C7000013B5094862
:103F200007F05EFA58B1084A0649126807480024AB
:103F300000940123FFF75CFA204602B010BD6FF039
:103F40001200FAE780BB000030C2000048BD00004C
:103F500070B546680C463168B0688B600025C1E9D1
:103F600000420822C0E900552946104406F04DFBE6
:103F7000F0680822C0E900552946104406F045FBC8
:103F80003368DD60A3682BB19B6C1BB105493246D9
:103F900020469847A3689B6A0BB1204698470020AB
:103FA00070BD00BFC19E000010B50B46144650B94D
:103FB0000E490F4A521AB3EBD20F0FD201EBC301D5
:103FC0004C68204610BD816841B14A68097839B112
:103FD0001846214690472368002BF2D10024F0E7D1
:103FE00014204343D418D358F6E700BF74BD000033
:103FF000D4BD00002DE9F04F074689B0154689462B
:1040000021B90324204609B0BDE8F08F104606F020
:10401000DBF90028F5D04FF000084146022424E0E7
:104020005C463CE029460AF5F17006F0F7FA0646D0
:1040300000284ED006F08CFA82B2601C0132314664
:10404000304406F0C0FA22465946304606F0D2FA0D
:104050004FF020033355BAF8400004440134AAF865
:10406000404008F10108002401994B1C03AA48466E
:104070000193FFF799FF0646F8B131680022284600
:1040800005F0CFF80028EFD1D6F800B0D7F808A097
:10409000BBF1000FC4D0584606F05AFA84B2BAF801
:1040A000402001322244B2F5D07FBBDD0A4A2B46C4
:1040B0000321384605F03AFE0124B8F1000FA1D0E3
:1040C000B8682A4600F1400100F5F17006F06BF87F
:1040D00098E70224F1E700BF6ED4000001491022E6
:1040E0000A60704710ED00E072B6404080F311881E
:1040F000BFF36F8FBFF34F8F30BF62B6BFF36F8FC9
:10410000704700BF72B6494081F3118820BF80F329
:10411000118862B6704700BF01B572B60B4A90694C
:1041200000281EBF0021916107F097F962B6EFF3F6
:104130000580A0F110004FEAC0000549014409C9FB
:104140009847BDE801400349084700002C120020B1
:10415000C8BB00005143000030BFFFF7FDBF00BFE8
:1041600013498A684FF030001044EFF3098C80E85F
:10417000F01F202080F31288BFF36F8F0D4F4FF098
:104180000066CA698A603E60D2F8AC000023C2F8BB
:10419000AC3080F3118804B5104600F081FABDE818
:1041A000044002F1300090E8F01F8CF3098870475A
:1041B0002C12002004ED00E01EF0040F0CBFEFF302
:1041C0000880EFF30980816911F8021C0229FFD0F1
:1041D00001B506F04DF901BD43B2002B08DB012209
:1041E00000F01F0002FA00F05B09024A42F82300C7
:1041F000704700BF00E100E0054B420900F01F00DE
:1042000053F82220012303FA00F01040704700BF4A
:1042100000E100E043B2002BA8BF03F1604301F1CD
:104220000101B8BF064B4FEA4111ACBF03F5614332
:1042300000F00F00C9B2B4BF195483F800137047DF
:1042400014ED00E00B4A08B50B4B22F07F029A6098
:10425000BFF34F8FBFF36F8FD3F8882022F4700223
:10426000C3F8882003F0ECF904F0EAFB00F0ACF9A5
:1042700003F0F0F90000000000ED00E00A4A0B49ED
:1042800093680968C3F8B0100949C3F8AC004B68DB
:1042900043F080534B60002383F31188BFF36F8F8B
:1042A0009368D3F8B00070472C120020DCC50000E2
:1042B00000ED00E042F8203C009B42F81C3C0A491B
:1042C000019B42F8183C029B42F8143C21F001018A
:1042D0004FF0807342F8043C42F8081C0023203A57
:1042E0000265C0F8AC30704759A400000C4A034680
:1042F000906898B113F1160FD0F89C0005D0A0F18A
:1043000020029A4206D8834204D281422CBF002167
:10431000012100E00021002908BF0020704700BFF4
:104320002C12002008B5094B98600D46144600F089
:10433000B7F9204685F30988002163B681F3118817
:10434000BFF36F8F0022002306F086F82C120020A6
:10435000044B9968D869884203D003494FF08052D2
:104360000A6070472C12002004ED00E0EFF3088093
:10437000EFF3098101B5724600F09AF801BD00BF64
:10438000002080F31488BFF36F8F07F083FB0020B9
:1043900011490860BFF34F8F104880F3088800F080
:1043A0002FF9202080F311880D484FF0AA014FF417
:1043B000026206F02AF90A484FF40261401880F3BD
:1043C0000988EFF314800221084380F31488BFF3B7
:1043D0006F8FFFF737FF000094ED00E0002500200D
:1043E0008026002038B5194B14469A6A9A6A9A6A50
:1043F0000546900719D5586B9A6A120615D519B15A
:104400009A6A22F080029A629A6A9A6A9A6AD10635
:104410000ED49B6A9A070BD400200C4A936A43F08F
:10442000FF0393620023237038BD6FF01500EBE7A4
:10443000064B5B681B05EFD52946FFF757FF0028A1
:10444000EAD080F309880220E7E700BF00ED00E032
:104450000D4B9A6A9A6A9A6A920508D59A6B9A6A7B
:10446000120404D518B19A6A22F400429A62064BEB
:104470009A6A9A6AD20558BF9A6A9A6A002042F4E8
:104480007F429A620870704700ED00E0074B9A6A1D
:104490009A6A9A6A9A6A9A6A9A6A9A6A6FEA024267
:1044A0006FEA12429A620020704700BF00ED00E000
:1044B00070B53E4B5B688AB00D46C3F30803002617
:1044C00086F31188BFF36F8F02F07F41B1F17F4F08
:1044D00011D102F00C0108290DD0120701D40546B4
:1044E00001260022033B8DF80720032B57D8DFE875
:1044F00003F0044E524B3546F3E72C4BDC6A14F0C4
:1045000002044CD1DA6A002A18DBDB6A5B0015D59D
:10451000AB6933F8022C4DF602739A420DD003F1C9
:10452000604303F626631B7803B30DF107020121F4
:104530002846FFF757FF044600E02C689DF8073037
:1045400093B92022294602A806F054F8099B46B3E5
:10455000C3F3080222B96FEA53236FEA4323099396
:1045600002A9204605F082FF0AB070BD104B1B78EF
:104570002BB10DF107010120FFF76AFFDBE70D4BBF
:104580001B889BB2002BD9D0FFF780FFD3E70DF13A
:1045900007020021CCE70DF107010020ECE7002421
:1045A000CCE723F4FF7323F00103D8E700ED00E02C
:1045B00029ED00E02AED00E0024A536943F01003C0
:1045C0005361704700ED00E0044800232021C21829
:1045D0000133302B82F80013F9D1704700E100E07D
:1045E000064A11680023C1F3072118468B4200D107
:1045F0007047936010610133F8E700BF90ED00E071
:1046000008B572B6002383F31388FFF7E9FF144B54
:104610004FF0FF32C3F88020C3F88420C3F888200D
:10462000C3F88C20C3F89020C3F89420C3F89820D6
:10463000C3F89C20C3F88021C3F88421C3F88821E3
:10464000C3F88C21C3F89021C3F89421C3F89821B2
:10465000C3F89C2162B6BFF34F8FBFF36F8F08BDC5
:1046600000E100E0064B9B68834207D1EFF305832E
:1046700023B1044A536843F08053536003F012BDE2
:104680002C12002000ED00E0024B034A03480121F8
:1046900000F06AB8000004200000002070C2000092
:1046A000D0F89C20054B203A1A60054A2021C3E926
:1046B00001121846012100F061B800BF74100020FB
:1046C00000000B15F0B51E4F00268E4201DB104690
:1046D000F0BD446884B353B104F1FF3C14EA0C0FFD
:1046E00018D11F2C16D905681CEA050F12D1202CF1
:1046F0000568D0F808C0D2B20FD9B4F1004F0ED877
:10470000013CB4FA84F4C4F11F046400072A4CEAA3
:10471000040406D96FF01502D9E70824F6E73E2411
:10472000F4E725F01F05154345F0100544F001049A
:10473000BA60FD6001323C6101360C30C5E700BF54
:1047400090ED00E0034B05225A60BFF34F8FBFF39B
:104750006F8F704790ED00E0BFF35F8F014B002239
:104760005A60704790ED00E010B5034C01232278A9
:10477000FFF7A8FF207010BDAB12002008B5084A53
:1047800000231278FFF79EFF10F1160F03D0054BA0
:104790000022072800DD08BD98601A610130F8E7A3
:1047A000AB12002090ED00E013490868082810B50E
:1047B0001ED8FFF7D1FF114C49680022904201F149
:1047C0000C0105D10E4B1870FFF7BCFF002010BD87
:1047D000A26051F80C3C23F01F03134343F0100375
:1047E000E36051F8043C43F0010323610132E5E743
:1047F0004FF0FF30EBE700BF7CC2000090ED00E01F
:10480000AB1200200CB41FB509B90DF10300CDE9BE
:10481000020107AB069A0648019302A9FCF76AFB5E
:10482000029B00221A7005B05DF804EB02B07047DD
:10483000DBA40000014B1860704700BFA0000020FF
:104840004FF02003EFF3118183F31288BFF36F8FD2
:104850000F4A0123C2F840354FF08042C2F8783544
:104860000C4A1268082A08D10B4A1268052A04D893
:104870000A48825C0AB10A4A13604FF08043012261
:10488000C3F8802581F31188BFF36F8F0020704734
:1048900000E001403001001034010010CFD40000CE
:1048A000380600404FF08043C0B2C3F81C05BFF388
:1048B0004F8F0549054BCA6802F4E0621343CB6091
:1048C000BFF34F8F00BFFDE700ED00E00400FA05E5
:1048D00020B1034B800143F001031847704700BF2C
:1048E00050BE00000E4A70B5841AA3100D4C5C43F4
:1048F0000546E4B20C2000FB04200E46402108448B
:1049000005F0C2FF011E05DB074B03EBC40463681F
:104910009847002128463346BDE87040184700BF3D
:1049200090100020B76DDBB6C8C200002DE9F04141
:10493000104E841BA310104C5C43E4B20C2565435D
:10494000804605F140000F463044402105F0B5FF98
:10495000011E09DB094A7319C3E90E27084B53F8F6
:104960003430BDE8F041184740463B46BDE8F041D1
:10497000184700BF90100020B76DDBB61DA90000DE
:10498000C8C20000002270B5012104461046FFF79E
:1049900041FC0020FFF720FC0F4801F089FC0F4B81
:1049A000984215D106F074FC26690D49304604F092
:1049B000C3FC00280BDB012535642469084904F198
:1049C0001C0004F0B9FC002801DBE564002070BD88
:1049D0006FF00400FBE700BF194A00000000AD0BB8
:1049E00008C3000001460C2309484B4370B5C418A6
:1049F000D4E90E5600224033A263184405F07BFF31
:104A00002DB132462B460348BDE87040184770BDB3
:104A10009010002020BB000010B1012804D0704786
:104A2000034B1B6C5B0701D1FFF7DCBF704700BF76
:104A30009010002010B507F002F84FF47A730C467E
:104A4000A0FB030103FB0411054AC30B43EA4143E6
:104A5000BDE81040C90B0120C2E9003101F038BCAB
:104A60003804002008B54FF02003EFF3118183F3E1
:104A70001288BFF36F8F114A136843F0020013F0DE
:104A8000010310600CD04FF08042D2F80C34D2F801
:104A90000C2413F0010303D0094805F02CFF012377
:104AA00081F31188BFF36F8F23B1BDE80840002068
:104AB000FFF798BFBDE80840FFF7BCBFE01000203B
:104AC000D010002010B506F0BAFF4FF47A730C46F0
:104AD000A0FB030103FB0411054AC30B43EA414356
:104AE000BDE81040C90B0120C2E9003101F022BC31
:104AF00040040020084BBFF35B8F53E8002F22F0E7
:104B0000020143E800100028F7D1BFF35B8FD30701
:104B100001D4FFF7D7BF7047E01000202DE9F74F11
:104B20004FF080470446D7F8186406F480364FF0FB
:104B30002003EFF3118883F31288BFF36F8F06F021
:104B40007EFF4FF47A730A46A0FB030103FB0211B8
:104B5000D7F80C94D7F80C34254BD3F800B0254B7C
:104B6000C50BD3F800A045EA414588F31188BFF38F
:104B70006F8F214ADFF89880204F2046082104F0EB
:104B800000FE19F0010FDFF88C901D4AB9F81A30B9
:104B90000093204614BF43463B46082104F0F1FD34
:104BA000A5EB0B03009320465B46164A0821A5EBB4
:104BB0000A0504F0E6FD53462046134A00950821F5
:104BC00004F0DFFD2046114A082104F0DAFDB9F8AF
:104BD0003630009320460A4A002E14BF43463B4617
:104BE000082104F0CEFD002003B0BDE8F08F00BF27
:104BF0003804002040040020DAD40000D5D400009E
:104C0000E5D40000FFD4000021D5000042D500000B
:104C100046CB0000901000207FB500220123CDE993
:104C2000022304ABCDE90433094ACDF800D06B462A
:104C3000CDF804D005F098FE002805DB4FF4804243
:104C40000023684603F0BCFA07B05DF804FB00BF20
:104C50003BA900002DE9F8433A49BFF35B8F0646B4
:104C6000012251E8003F41E800200028F9D1BFF3BC
:104C70005B8F33B9344935484B60CB608A6004F0B0
:104C80006EFB731E012B32D8012E07D14FF08043EB
:104C9000D3F81C3403F00303012B28D006F073FE75
:104CA000044618B92A4B1B78002B44D14FF020033F
:104CB000EFF3118583F31288BFF36F8F0124254F23
:104CC000DFF89480DFF894904FF08042D2F81834E7
:104CD000D2F81824D2030CD503F00303012B01D022
:104CE000012E06D10CB385F31188BFF36F8FBDE899
:104CF000F883ACB12846FFF705FA4FF08042D2F8AE
:104D00001835002BE0D139680029DDD03B603B68C5
:104D10000123C2F81835C8F88031C9F80030D3E74C
:104D20000021212003F08EF9E7E74FF080430222B3
:104D3000C3F80423DBE74FF080430222C3F80823C3
:104D40000546BCE7E410002080100020AC100020D5
:104D50000C1700200401004000E100E008000040C2
:104D600008B5084B0848186006F03AFB38B1074808
:104D7000FFF760FD0548FDF7BFFD002008BD6FF09F
:104D80001200FBE7E810002080BB0000914D0000FE
:104D90000A2838B5074D044604D1286883680D21D8
:104DA0005B68984728688368E1B25B68984720464B
:104DB00038BD00BFE8100020420970B5034602D09C
:104DC000012A1DD070BD0F4E326951680029F9D0FB
:104DD0000C6803F01F030125002C05FA03F538BF0A
:104DE00000248A682A4002D04B6830469847002C3D
:104DF000E8D02368002B38BF002321461C46F0E78B
:104E0000014EE1E738BB000050BB000030B5406800
:104E1000047B01F01F05B2F5005F45EA441585B03B
:104E20004FF0000404D1284601F06AFD002032E072
:104E3000B2F5804FCDE902442FD1B3F5003F0CBF4E
:104E4000042305238DF80830836823FA01F1C9078C
:104E50002FD4B2F5A03F2CD16A09012A05F01F0317
:104E60001C4A03F5E07318BF4FF0A04252F82330FC
:104E7000DB071ED40DF107042146284601F0ACFCE7
:104E8000154B984214D1204601F0F0FC134B984288
:104E90000ED06FF00B0005B030BDB3F5C02F05D0BC
:104EA000B3F5003F0CBF02230123CBE70323C9E77F
:104EB00003940023194602AA284601F06BFB074B16
:104EC000984204D10121284601F0D6FCAEE76FF0EC
:104ED0000400E0E7000300500400AD0B0000AD0B40
:104EE00010B501F0B3FC044668B901F087FC084B2B
:104EF00098420AD10748214601F068FC2246052164
:104F00000620FFF787F9002010BD6FF00400FBE7D3
:104F10000000AD0BB94D00002DE9F04347683B7B25
:104F200001F01F0585B00E4645EA43151446CAB97F
:104F300002A9284601F050FC0446284601F002FD73
:104F4000484B984204D06FF0040005B0BDE8F083F0
:104F5000844205D19DF8080001F082FCA042F2D104
:104F60000020F2E74FF000090DF103013046CDE9D2
:104F7000029901F031FC4B46804602AA4946284678
:104F800001F008FB374B984202D06FF01500DCE7C8
:104F9000804503D19DF8030001F062FCA3054ED5C6
:104FA000314B324A234093423AD00CD8062B14D0CE
:104FB00004D893B1022BE8D104230EE0B3F5801F8F
:104FC000E3D1012309E02A4A93422BD0B3F5A00F85
:104FD0002AD0B3F5800FD8D102238DF8043084F4A1
:104FE0008073C3F30023E0068DF8053054BFC4F38B
:104FF0004013032321058DF8063017D57B68012166
:1050000001FA06F6C3F80865002201A9284601F056
:105010006DFB144B984214BF6FF01500002094E70D
:105020000723DAE70523D8E70323D6E7620541BF64
:105030007B68012101FA06F6C3F80C65E4E7E30694
:105040004FF0000354BFC4F3401403241A4601A9CF
:1050500028468DF8044001F09DFA024B98423FF437
:105060007FAF92E70000AD0B0600F00006001000D5
:10507000020040002DE9F341074690680378303B79
:10508000092B144614D8D3681B7843F02003613BE6
:10509000192B0DD805F0FBF91D49E06805F068FAF9
:1050A00080B11C49E06805F063FA68B3002006E0AF
:1050B0003846194A012104F064FB6FF0850002B004
:1050C000BDE8F0814FF48078606802F021FA05466F
:1050D0000028EBD0A06805F0DAF9C6B263680F4A81
:1050E00000960821384604F04CFB2969A868012382
:1050F00003FA06F20B6823EA02030B6042460368D8
:10510000314628469847D1E74FF40078DCE700BFE6
:10511000D0DC000099D500009DD50000B8D5000076
:105120002DE9F341074690680378303B092B15467B
:1051300011D8D3681B78303B092B0CD805F0A7F9A0
:10514000E86805F0A4F98046686802F0E1F90446D1
:1051500058B9002006E038460D4A082104F011FB3A
:105160006FF0150002B0BDE8F081A86805F08FF976
:10517000C6B26B68074A00963846082104F001FB66
:105180005FFA88F23146204605F05BFCE1E700BF9C
:10519000CFD50000E9D50000F0B515469268137828
:1051A000303B092B85B0064609D8104605F06FF94B
:1051B000686802F0ADF9044648B9002005E01A4AD3
:1051C000012104F0DEFA6FF0150005B0F0BDA8680B
:1051D00005F05DF9C7B200976B68144A08213046A4
:1051E00004F0CFFA2569A36803A95B6820469847B5
:1051F000031E0FD12A68039B0120534000FA07F7D2
:105200003B4214BF03460023094A0821304604F0FC
:10521000B8FAD2E7F8DA3046064A012104F0B1FACA
:105220006FF00400D1E700BFFFD5000019D60000E1
:105230002CD6000036D600002DE9FF411746002687
:10524000926803961378303B092B054609D810461F
:1052500005F01DF9786802F05BF9044650B90020AA
:1052600005E01C4A012104F08CFA6FF0150004B02F
:10527000BDE8F081B86805F00AF95FFA80F8CDF86A
:105280000080154A7B680821284604F07AFA134A00
:105290000821284604F075FA6868036801221F692E
:1052A0000DF10B0103ABB847039B63B9324641468E
:1052B000204605F0C6FB86F0010600214FF4804031
:1052C00002F0C0FEE8E7064A0821284604F059FA31
:1052D000C5E700BF4ED600006AD6000085D60000A4
:1052E00045CB000008B54368D3E9020101F03AFC60
:1052F000034B984214BF6FF00F00002008BD00BFA1
:105300000000AD0B10B50446002201210320FEF77A
:1053100081FF60682369064A00F1080101F086FCFC
:10532000044B984214BF6FF00F00002010BD00BF67
:10533000395300000000AD0B0378012B08D0022B7D
:1053400008D04BB9054B0B6301F1180002F012BFF6
:10535000034BF8E7034BF6E7034BF4E70000AD0B14
:105360000100AE0B0200AE0B0100AD0B2DE9F04FBA
:105370004668076989B01D460C46338BD7F83890CC
:10538000009393460021142203A805F03EF98DF8FE
:105390000D504FF0FF324FF0FF33384602F010FF50
:1053A00007F1180A00220023504602F009FF304698
:1053B00001F09EFC4FF000084546D84501D300247B
:1053C00049E0217A0A0700F18F8008F10108D845E9
:1053D00062680AD28B0708D4237D81EA030000F0BB
:1053E000010003F00403034316D0BDB1002300986D
:1053F00005EB020C84457AD8C80706D421680193CE
:1054000009EB050005F0F6F8019B62681544ADB2A2
:10541000002B37D00C34D0E70123E8E7C90724D5A7
:1054200023680693636804930025237A03F001023E
:1054300013F0020F8DF80C2003A90CBF20220022CC
:10544000304601F083FC2E4B984221D00B3398421A
:1054500053D06FF00404304601F05AFC384602F095
:1054600089FE204609B0BDE8F08F216801F0604355
:10547000B3F1005FD4D0738B93423BD3484605F021
:10548000B9F8A588002DCBD0CDF818900495CCE7BD
:105490004FF480420023504602F092FE38B130466D
:1054A00001F036FCD6E9020101F05CFBD1E73B6B71
:1054B000134A9342CDD1237ADB0701D40025A9E713
:1054C000069B9945FAD1234608E0A91AD8680193AA
:1054D0008DB219FA81F105F08DF8019B5A68954259
:1054E000A3F10C03F1D2E9E76FF08504B3E76FF0A5
:1054F0001B04B0E76FF01504ADE76FF00F04AAE7E7
:105500000000AD0B10B50C46054904F029FF00B1B1
:10551000006820600023C4E90133E36010BD00BFD0
:10552000F4D600002DE9F04F044689B050681746C4
:1055300001F0EEFF804650B920467B682D4A0121DC
:1055400004F01FF96FF0120009B0BDE8F08F2A4A8D
:10555000DFF8B8B00821204604F013F900234FF01B
:1055600010090393A9F11005244ADFF8A4A02B46E3
:105570000821204604F005F92B1F732B05D952464C
:105580000821204604F0FDF81BE00DF113030593FC
:105590000023069302238DF81C30D8F808309B684E
:1055A00001221E4605A9ABB24046B047F8B92B46CA
:1055B000134A0821204604F0E4F8039E0136F3B2B2
:1055C000039301354D45D7D10E4A0821204604F0FA
:1055D000D8F8802D05F11009C4D17B6800932046CE
:1055E000039B094A082104F0CCF80020ACE75A4696
:1055F000C6E700BFF9D600001BD7000050D7000057
:10560000AECF000045CB00005BD7000057D70000AD
:10561000B4CF000038B505461446506801F078FF55
:1056200048B963680C4A0121284604F0AAF86FF0D3
:105630001204204638BD83685B6953B1984704461D
:105640000028F6D0054A23460121284604F099F89F
:10565000EFE76FF05704F5E7F9D6000073D70000C5
:105660002DE9FF4106461446506801F051FF0546FA
:1056700050B9304663681C4A012104F082F86FF08B
:10568000120004B0BDE8F081A0681022002104F0EF
:10569000E5FF102207460021E06804F0DFFF10223A
:1056A00080460021206904F0D9FF02238DF8008094
:1056B0008DF80100CDF804D002938DF80C30AB6862
:1056C0000122D3F8088001A9BBB22846C0470028B0
:1056D00008DA30466368054A012104F052F86FF099
:1056E0000400CEE70020CCE7F9D6000096D70000F2
:1056F0002DE9F04F06468DB050680F46144601F074
:1057000007FF804650B930466368294A012104F0FA
:1057100038F86FF012000DB0BDE8F08F10220021B4
:10572000A06804F09BFF102283460021E06804F08B
:1057300095FF042F054631D920691022002104F07D
:105740008DFF1028A8BF102007460DF10703069310
:105750004FF000034FF0010A8DF820300DF10809D9
:105760000723CDE909978DF80750CDF81CA08DF8D7
:105770002C30D8F808309B6802221D4606A91FFA73
:105780008BF34046A84700280ADA30466368094A86
:10579000514603F0F6FF6FF00400BCE71027D4E792
:1057A00030463A46494603F0F9FF0020B3E700BF10
:1057B000F9D60000B5D700002DE9F047064688B0BD
:1057C0005068144601F0A4FE074650B9304663689D
:1057D000214A012103F0D5FF6FF0120008B0BDE8A7
:1057E000F087A0681022002104F038FF10228146C3
:1057F0000021E06804F032FF0DF107034FF00108CB
:1058000002930DF10603CDE90538002507238DF835
:105810000700CDF80C808DF810508DF81C30BB6857
:105820000222D3F808A002A91FFA89F33846D0470C
:10583000A84208DA30466368084A414603F0A1FFEF
:105840006FF00400CAE730469DF80630044A08218C
:1058500003F097FF2846C1E7F9D60000B5D700004E
:10586000D5D700002DE9F04F07468FB050680C46A1
:10587000154601F04DFE064650B938466B68294A78
:10588000012103F07EFF6FF012000FB0BDE8F08F32
:1058900010220021A86804F0E1FE102283460021B6
:1058A000E86804F0DBFE043C814601D50020ECE70B
:1058B000102C05F10C08A8BF10240DF1100A08EBFC
:1058C0008403984523D10DF10F03089300234FF073
:1058D00001088DF82830022204ABCDE90B348DF895
:1058E0000F90CDF824808DF83420B36808A99C6807
:1058F00030461FFA8BF3A0470028D7DA38466B688A
:10590000094A414603F03DFF6FF00400BDE758F837
:10591000040F01931022002104F0A0FE019B0AF85D
:10592000010BCEE7F9D6000096D700000E2910B57E
:10593000036910D010291DD00D2924D1586A642183
:1059400090FBF1F3136001FB130342F210714B4320
:105950005360002010BD996A4FF47A730C0AC9B2E3
:10596000B4FBF3F0106003FB10405943434303EBD7
:105970001123EDE7DB6A990A1160C3F30901034BB8
:105980004B439B0AE4E76FF01500E3E740420F004A
:1059900000230A4A8A6030B5094C0B60CB604B602B
:1059A0001A4654F8045B25B1824201D10D6030BD26
:1059B00001320133392BF4D1F9E700BFFCC40000F8
:1059C000E000002010B50C46002104F0C9FC00B135
:1059D000006820600023E3606360014BA36010BD9A
:1059E000FCC400002DE9F84304468846506816467A
:1059F00001F08EFD054648B9204673681D4A012115
:105A000003F0BFFE6FF01200BDE8F8838368392110
:105A1000DB689847031E04DA174A0121204603F089
:105A2000B0FEB8F1020F20D1144F002657F8042B16
:105A30001AB129462046FBF7FBF80136392EF5D17D
:105A40000020E1E756F8272029462046FBF7F0F82A
:105A5000002806DA56F827304A460121204603F08E
:105A600090FE0137B845EDD8EAE7DFF81490022739
:105A7000F8E700BF4CD9000061D90000E000002029
:105A80007CD90000F0B54B79012B26D0032B21D116
:105A900010268B79032B1DD1CC790CB1012C19D197
:105AA0000A7912B1022A15D10E220B684568B3F5A6
:105AB000164F2D6865D02DD8B3F5165F64D016D873
:105AC000B3F5966F62D00AD8B3F5967F61D0B3F57F
:105AD000167F61D06FF0850052E00026D9E7B3F55C
